:020000040800F2
:10000000A0060020A1010008BF1300083F1300084C
:10001000BD130008E9020008511B000800000000A1
:100020000000000000000000000000008D15000826
:10003000EB02000800000000E11300085916000858
:10004000BB010008BB010008BB010008BB010008A0
:10005000BB010008BB010008BB010008BB01000890
:10006000BB010008BB010008BB010008BB01000880
:10007000BB010008BB010008BB010008BB01000870
:10008000BB010008BB010008BB010008BB01000860
:10009000BB010008BB010008BB010008BB01000850
:1000A000BB010008BB010008BB010008BB01000840
:1000B000BB0100080000000000000000BB010008B8
:1000C000BB010008BB010008BB010008BB01000820
:1000D000BB010008451B0008BB010008BB0100086C
:1000E000BB010008BB010008000000000000000088
:1000F0000000000000000000000000000000000000
:1001000000000000BB01000800000000BB01000867
:100110000000000000000000BB010008BB01000857
:10012000BB010008BB010008BB010008BB010008BF
:10013000BB010008000000000000000000000000FB
:10014000BB010008BB010008BB0100080000000063
:10015000BB010008BB010008BB010008BB0100088F
:10016000BB010008BB010008BB0100080000000043
:10017000BB010008BB0100080000000000000000F7
:10018000BB010008BB010008BB010008DFF80CD070
:1001900000F098F800480047591D0008A00600200C
:1001A0000648804706480047FEE7FEE7FEE7FEE711
:1001B000FEE7FEE7FEE7FEE7FEE7FEE7F1160008D2
:1001C0008D0100082DE9F05F0546002092469B4610
:1001D00088460646814640241BE02846414647465D
:1001E000224600F05FF853465A46C01A914110D398
:1001F00011461846224600F046F82D1A67EB010812
:100200004F4622460120002100F03DF817EB00097F
:100210004E41201EA4F10104DFDC484631462A4647
:10022000434600F000B830BCBDE8C09F10B503469F
:10023000C9B201E003F8011B521EFBD210BD10B57C
:100240004843044601F0A4FD002805D00021002CFD
:1002500002D0641E0155FAE710BD30B50B460146C9
:1002600000202022012409E021FA02F59D4205D355
:1002700003FA02F5491B04FA02F52844151EA2F1FF
:100280000102F1DC30BD202A04DB203A00FA02F141
:10029000002070479140C2F1200320FA03F3194374
:1002A00090407047202A04DB203A21FA02F0002116
:1002B000704721FA02F3D040C2F120029140084376
:1002C00019467047064C074D06E0E06840F0010310
:1002D00094E8070098471034AC42F6D3FFF75AFF72
:1002E000B0200008D0200008FEE7704710B590F855
:1002F00025100024022903D00421C16301241AE03F
:1003000001680A6822F00E020A6001680A6822F099
:1003100001020A6090F84410036C01F01C020121F4
:1003200001FA02F25A6080F82510002180F82410AA
:10033000816B01B18847204610BD00002DE9F84FC0
:10034000DFF864B100234FF0010C4FF0030A4FF0C7
:100350000F090BF1040EA0E00CFA03F6324072D044
:100360004C68022C01D0122C0ED1DC0800EB840862
:10037000D8F820405D07EF0E09FA07F5AC430D6988
:10038000BD402543C8F8205007685D0091F80480FF
:100390000AFA05F408F00308A74308FA05F848EA42
:1003A0000708C0F800804F68012F05D0022F03D046
:1003B000112F01D0122F11D18768D1F80C80A743DB
:1003C00008FA05F848EA0708C0F808804768B74304
:1003D0000E79C6F300169E403E434660C668A643AB
:1003E0008C68AC403443C4604C68E40054D52F4C56
:1003F000256E45F001052566246E23F0030504F003
:10040000010400942A4C2E19B4689D072F0F09FA95
:1004100007F5AC43B0F1904F04D0264DA84203D16C
:10042000012512E0002510E0234DA84201D102254C
:100430000BE0224DA84201D1032506E0204DA84241
:1004400002D1042501E027E00725BD402543B56022
:10045000DBF800405D464E689443F60300D5144334
:100460002C60DEF8004075464E689443B60300D514
:1004700014432C600C4D08352C684E689443F602EA
:1004800000D514432C60084D0C352C684E689443FD
:10049000B60200D514432C605B1C0A6832FA03F4E0
:1004A0007FF45AAF00F00EB8000401400010024083
:1004B000000001400004004800080048000C00480B
:1004C0000010004818BCBDE8E08F0000014800683B
:1004D000704700000000002002480168491C0160CC
:1004E000704700000000002010B50024032000F039
:1004F0008FF8002000F008F808B1012401E000F0B6
:100500001BF8204610BD000070B5054609484FF4A1
:100510007A7100240068B0FBF1F000F096FD08B19C
:10052000012404E000222946501E00F051F8204624
:1005300070BD0000040000201E4808B5016E41F0A7
:1005400001010166016E01F001010091816D41F030
:1005500080518165806D00F080500090032000F094
:1005600057F8002211466FF00B0000F031F800221E
:1005700011466FF00A0000F02BF8002211466FF0D0
:10058000090000F025F800221146501F00F020F865
:1005900000221146101F00F01BF800221146901E89
:1005A00000F016F80022BDE808401146501E00F089
:1005B0000FB800000010024000F01F02012191401E
:1005C0004009800000F1E020C0F8001170470000F1
:1005D000F0B40E4B1B680C46C3F30223C3F10705AE
:1005E000042D00D90425191D072901D2002300E09C
:1005F000DB1E012606FA05F1491E214099409E4066
:10060000761E16403143F0BC00F0DABE0CED00E07F
:10061000064900F0070208684FF6FF03184040EA59
:100620000220034A10430860704700000CED00E010
:100630000000FA051649B0F5007F0868C0F34120B4
:1006400009D0022805D0086820F4C06040F480601A
:100650000860002070470128FBD0086820F4C060C3
:1006600040F4007008600B483222006850430A4A88
:10067000B0FBF2F0401C00E0401E4A69520501D573
:100680000028F9D148694005E3D5032070470000F0
:10069000007000400400002040420F000248006843
:1006A00000F4C06070470000007000402DE9F84F72
:1006B000044600270088A84D3E46000515D5606C0D
:1006C00060B1B0F5000F04D0B0F5400F2BD001277A
:1006D0000AE0E86840F48030E86024E00021201D52
:1006E00000F080FE07001ED03E46206880033AD509
:1006F000A86D4FF00008C00009D4A86D40F08050EC
:10070000A865A86D4FF0010800F080500090DFF858
:100710004CA2DAF8001041F48071CAF80010FFF71B
:10072000D5FE814610E0D5F88800616C20F44000C9
:100730000843C5F88800D8E7FFF7C8FEA0EB09001A
:10074000022801D9032705E0DAF80000C005F3D537
:10075000002F7DD04FEA0706B8F1000F03D0A86D37
:1007600020F08050A8652078C00707D0D5F8880011
:10077000216A20F003000843C5F88800207880072C
:1007800007D5D5F88800616A20F00C000843C5F849
:1007900088002078400707D5D5F88800A16A20F0A6
:1007A00030000843C5F888002078800607D5D5F8C2
:1007B0008800E16A20F440600843C5F8880020887A
:1007C000800507D5D5F88800E16B20F44020084368
:1007D000C5F888002088400507D5D5F88800216C29
:1007E00020F440100843C5F888002078400607D55B
:1007F000D5F88800216B20F440500843C5F88800E4
:100800002078000607D5D5F88800616B20F44040B9
:100810000843C5F888002088C00507D5D5F88800AA
:10082000A16B20F440300843C5F8880020684FF0E1
:10083000006700034FF0806850D5D5F88800A16CA0
:1008400020F040600843C5F88800A06CB84200E082
:1008500005E03BD1E86840F48010E8603EE0D5F860
:10086000900010F4407014D0A16D814211D0D5F8E1
:100870009000D5F8901020F4407041F48031C5F814
:100880009010D5F8901021F48031C5F89010C5F87B
:100890009000C00711D0FFF719FE074641F28839D2
:1008A00007E000BFFFF712FEC11B494501D903262F
:1008B00052E7D5F890008007F4D5D5F89000A16DE7
:1008C00020F440700843C5F8900045E7404505D145
:1008D0000121201D00F086FD00B10646206840037E
:1008E00017D5D5F88800E16C20F040600843C5F8C2
:1008F0008800E06CB84204D1E86840F48010E860F9
:1009000007E0404505D10121201D00F06BFD00B13D
:1009100006462088400411D5D5F88800216D20F0C6
:1009200040500843C5F88800206DB0F1805F05D1C4
:100930000221201D00F056FD00B10646208800046B
:1009400006D555F8880F616D20F080400843286077
:10095000304600F005B80000001002400070004072
:1009600018BCBDE8E08F00002DE9F0470F460500F8
:1009700058D03F4E306800F00700B84209D23068C6
:1009800020F0070038433060306800F00700B842BC
:1009900048D12878374CC0072CD06868032811D07C
:1009A000022812D0216898B1490500293ADAA168D5
:1009B00021F003010143A160FFF788FD804641F269
:1009C000883910E021688901EFE721688903ECE7A5
:1009D0008907EAE7FFF77AFDA0EB0801494502D94C
:1009E0000320BDE8F087A068696800F00C00B0EB58
:1009F000810FEFD12878800705D5A068A96820F07D
:100A0000F0000843A060306800F00700B8420BD93E
:100A1000306820F0070038433060306800F007008D
:100A2000B84201D00120DCE72878400705D5A0684E
:100A3000E96820F4E0600843A0602878000706D544
:100A4000A068296920F4605040EAC100A06000F06D
:100A500041F8A168084AC1F30311515C01F01F017C
:100A6000C84006490860BDE8F0470020FFF74CBDCC
:100A70000020024000100240602000080400002016
:100A8000014800687047000004000020054806493E
:100A900000688968054AC1F30221515C01F01F0119
:100AA000C84070470400002000100240A020000849
:100AB0000548064900688968054AC1F3C221515CAE
:100AC00001F01F01C84070470400002000100240E0
:100AD000A020000870B52549002318468A68CC6814
:100AE00012F00C0204F00306214C4FEA640509D011
:100AF0000C2A05D0042A26D0082A00D1284670BD29
:100B0000012E10D10B681B0704D4D1F89430C3F325
:100B1000032302E00B68C3F30313164E56F8233089
:100B20007AB10C2AEBD1C86800F00302C868C0F3A0
:100B30000210401C022A08D0032A09D0B3FBF0F0AF
:100B400008E0184670BD204670BDB4FBF0F001E02F
:100B5000B5FBF0F0CA68C968C2F306225043C1F37E
:100B60004161491C4900B0FBF1F070BD001002402A
:100B70000024F400702000082DE9F84305007CD023
:100B8000FD4CA06800F00C06E06800F00307287830
:100B9000C00662D576B10C2E01D1012F0AD0A8690A
:100BA0000028206878D040F001002060FFF78EFC1C
:100BB000804659E02068800702D5A8690028DED069
:100BC000296A2068000703D5206800F0F00004E0DF
:100BD000D4F89400F02202EA1010814216D9084697
:100BE00000F096FC002848D1206840F00800206002
:100BF0002068296A20F0F000084320606068E969F5
:100C000020F47F4040EA0120606015E0206840F059
:100C1000080020602068296A20F0F0000843206066
:100C20006068E96920F47F4040EA01206060286A3A
:100C300000F06EFC0028D6D1FFF74CFFA168CF4A28
:100C4000C1F30311515C01F01F01C840CC49086099
:100C50000020FFF759FC00287ED12EE0FFF736FC7C
:100C6000A0EB0800022878D820688007F6D5206815
:100C700040F008002060206801E0BBE00CE0296A39
:100C800020F0F000084320606068E96920F47F40AC
:100C900040EA0120606010E020F001002060FFF7D2
:100CA00015FC804606E000BFFFF710FCA0EB080033
:100CB0000228D8D820688007F6D42878C00740D00A
:100CC000082E18D00C2E01D1032F14D06868B0F56F
:100CD000803F17D0B0F5A02F206817D020F48030C7
:100CE0002060206820F4802020606868E0B1FFF771
:100CF000EDFB804614E02068800322D56868002858
:100D000078D01EE0206840F48030EDE740F4802089
:100D10002060F7E7FFF7DAFBA0EB08006428A2D811
:100D200020688003F6D50CE0FFF7D0FB804605E095
:100D3000FFF7CCFBA0EB0800642894D82068800360
:100D4000F6D4287880073BD5042E11D00C2E01D183
:100D5000022F0DD0E86801E05EE1B8E000282068CD
:100D60001ED040F480702060FFF7B0FB07460CE017
:100D7000206840050CD5E8680028C1D008E000BF15
:100D8000FFF7A4FBC01B022893D820684005F7D5C5
:100D90006068297C20F0F85040EA016060600FE054
:100DA00020F480702060FFF791FB074605E000BF4C
:100DB000FFF78CFBC01B0228B1D820684005F7D490
:100DC0002878000729D568690028D4F8940012D043
:100DD00040F00100C4F89400FFF778FB074604E0F8
:100DE000FFF774FBC01B022871D8D4F89400800769
:100DF000F6D512E017E120F00100C4F89400FFF7E7
:100E000065FB074605E000BFFFF760FBC01B02283B
:100E10005DD8D4F894008007F6D42878400766D5CA
:100E2000A06D0027C00008D4A06D40F08050A065E0
:100E3000A06D012700F08050009052480168C9055C
:100E400012D40168814641F480710160FFF73EFBD6
:100E5000804605E0FFF73AFBA0EB0800022836D8F1
:100E6000D9F80000C005F5D5A868012816D00528D6
:100E7000D4F8900017D020F00100C4F89000D4F806
:100E8000900020F0040000BFC4F89000A86841F270
:100E90008839C0B1FFF71AFB80460FE0D4F8900004
:100EA00040F00100F0E740F00400C4F89000F5E7DE
:100EB000FFF70CFBA0EB0801494508D8D4F89000D7
:100EC0008007F5D50EE0FFF701FB804606E07CE0E9
:100ED000FFF7FCFAA0EB0801494576D8D4F890005A
:100EE0008007F5D41FB1A06D20F08050A065287850
:100EF000800628D5686A0028D4F8980012D040F0FF
:100F00000100C4F89800FFF7E1FA074605E000BFCA
:100F1000FFF7DCFAC01B02287DD8D4F898008007C0
:100F2000F6D510E020F00100C4F89800FFF7CEFAE3
:100F3000074604E0FFF7CAFAC01B02286BD8D4F8B2
:100F400098008007F6D4A86AF0B30C2E6BD0022864
:100F5000206820F08070206018D02068000103D441
:100F6000E06820F00300E060E06807490840E060C6
:100F7000FFF7ACFA054651E000100240602000087F
:100F80000400002000700040FFFFEEFEFFF79EFA15
:100F9000064604E0FFF79AFA801B02283BD8206837
:100FA0008001F7D4286B55F82C1F00011038084336
:100FB000298A1E4A490802EB4151AA6841EA0221E6
:100FC0000843297D490801E02BE024E04FF07E42F0
:100FD00002EB41610843297B40EAC160E060206880
:100FE00040F080702060E06840F08070E060FFF7C3
:100FF0006DFA054605E000BFFFF768FA401B0228BE
:1010000009D820688001F7D50BE000BFFFF75EFA32
:10101000401B022802D90320BDE8F8832068800124
:10102000F4D40020F8E70120F6E700000000E0FF1C
:101030004FF0E0210428086903D020F00400086183
:10104000704740F00400FAE7704710B5401EB0F159
:10105000807F01D3012010BD4FF0E02460610F219B
:10106000601700F0ADF90020A0610720206100208A
:1010700010BD10B5FFF7E8FF10BD704770470000C6
:101080002DE9F04102680446D0691168936810F0B8
:101090000F0F4FF000055BD003F0010601F49077CD
:1010A000374369D0C70707D0CF0505D50127176299
:1010B000626F42F001026267820708D5DA0706D044
:1010C000276802223A62626F42F0040262674207B6
:1010D00008D5DA0706D0236804221A62626F42F04C
:1010E0000202626702070AD501F02002324306D0ED
:1010F000236808221A62626F42F008026267626F18
:10110000002A32D0800605D5880603D5216E09B1A4
:1011100020468847606F000703D420688068400637
:1011200025D5204600F0A2FB20688168490619D524
:10113000816821F040018160E06E98B120498163AF
:10114000E06EFFF7D3F800280FD0E06E816B06E069
:10115000860611D58E060FD5216E1EE02046BDE80D
:10116000F04108472046FFF789FFBDE8F08120469F
:10117000FFF784FF6567F8E7C60209D55B0207D56C
:101180004FF4801010622046BDE8F041FFF775BFB4
:10119000030605D50B0603D5616E0029DED1E4E711
:1011A0004006E2D54806E0D51168204621F040010E
:1011B0001160202184F87110656600F0BFF8D4E753
:1011C0005918000810B5040003D094F8710010B14C
:1011D00007E0012010BD002084F87000204600F0D8
:1011E00027F8242084F871002068016821F00101AB
:1011F0000160204600F04AFB0128EBD0606A10B184
:10120000204600F097FA2068416821F4904141603F
:101210002068816821F02A0181602068016841F01E
:10122000010101602046BDE8104000F0E7BA00006F
:1012300000B50068124987B088421ED11148016E7E
:1012400041F480410166006E694600F480400590DB
:10125000C020009002200190002002900320039003
:10126000072004900848FFF769F80022114625205E
:10127000FFF7AEF92520FFF79FF907B000BD00008A
:101280000038014000100240000400482DE9F843F6
:10129000044690F871001F4616460D4620284BD193
:1012A000C5B1BEB194F87000012845D0012084F882
:1012B00070004FF00008C4F87480212084F8710099
:1012C000FFF704F9A4F850608146A4F852604FF487
:1012D000805615E00120BDE8F8838021204600F00B
:1012E000FFFBD8B9A068B04201D12069C0B115F8A0
:1012F000010B21680885B4F85200401EA4F8520082
:10130000B4F852004B464FF0000200970028E4D199
:101310004FF04001204600F0E3FB30B10320DAE754
:1013200035F8020BC0F30800E3E7202084F87100D1
:1013300084F870800020CEE70220CCE77047FEE7FB
:10134000094808B5C16C41F08001C164C16C01F06D
:1013500080010091C16C41F00201C164C06C00F0D9
:101360000200009008BD0000001002400E4810B5B9
:101370000C4901604FF4E1314160002181600C2291
:10138000C160C0E904128161C16101624162FFF77D
:1013900019FF002805D0BDE81040442103A000F04B
:1013A000D8BB10BD00380140240000202E2E2F5342
:1013B00072632F75736172742E630000FEE77047CD
:1013C0000907090E002806DA00F00F0000F1E020FE
:1013D00080F8141D704700F1E02080F80014704779
:1013E000704700002DE9F041444C05468846E0680E
:1013F0000026810728680DD0E16801F003018142D1
:1014000016D1A8B1E0686968C0F30210401C884298
:101410000ED120E0012804D0022805D0032807D1EE
:1014200008E02168890701E021684905002907DBF8
:1014300001265FE02168890302D421684903F5E7AA
:10144000E1686A686FF00F0321F0730103EB021289
:1014500011430143E160206820F080602060FFF7C5
:1014600035F8074605E000BFFFF730F8C01B02283B
:1014700037D820680001F7D4B8F1000F18D0B8F1C0
:10148000010F1DD0287D4FF07E41400801EB4060E8
:10149000A96840EA01202169194A114008432061E6
:1014A000206840F080602060FFF710F807461AE0DF
:1014B000A868297B000240EAC1602169114AECE773
:1014C000288A1149400801EB4050A96840EA0120F0
:1014D00021690E4AE1E700BFFEF7F8FFC01B0228B2
:1014E00001D9032606E020680001F5D52069A96925
:1014F000084320613046BDE8F08100000010024042
:10150000FF80FFF9FF80FF070000E0FFFF809FFFE3
:10151000F8B51C4D06460024A86DC00002D5FFF7A3
:10152000BDF80DE0A86D40F08050A865A86D00F0F2
:1015300080500090FFF7B2F8A96D21F08051A965A5
:10154000B0F5007F04D0802E07D94FF003040AE0E5
:10155000802E08D9A02E01D804E001D1022402E097
:10156000702E00D101240848016821F007012143B1
:101570000160006800F00700A04201D00120F8BD22
:101580000020F8BD0010024000200240704700001B
:101590002DE9F0410D4D0121287000F047FD002498
:1015A0000126A0460227082000F065FC010007D0B4
:1015B0000F7081F801808E704C60287800F000FD7B
:1015C000641CE4B20A2CEED3BDE8F08114000020C4
:1015D00070B50D46080415D50E48007800F0C8FC1B
:1015E00004000CD02078012806D0022804D1A1786C
:1015F00009A0626800F0AEFA204600F050FC85F4C5
:10160000004070BDE807FCD009A000F0A3FA85F007
:10161000010070BD14000020206964203D20256475
:1016200020A1A264617461203D202564200D0A0080
:101630003E3E3E3E3E6576656E743A205342505FB4
:1016400053544152545F4445564943455F455654AF
:1016500020200D0A0000000010B5FEF73DFFBDE898
:101660001040FFF706BD30B5ADB01020012400904A
:10167000002506946020CDE9075002202821CDE9FD
:101680000A04CDE90C410721CDE90E1010906846FF
:10169000FFF772FA00B1FEE70F2028900320CDE992
:1016A00029052B95042128A82C95FFF75DF900B199
:1016B000FEE711A819951194FEF7F8FF00B1FEE7B7
:1016C0004FF40070FEF7B6FF00B1FEE7FFF7D8F960
:1016D0004FF47A71B0FBF1F0FFF7B7FC0420FFF78D
:1016E000A7FC00221146501EFEF772FF2DB030BD40
:1016F0000D48016841F4700101600C48016841F037
:1017000001010160002181600268094B1A400260FA
:101710008214C260026822F4802202608161024960
:10172000C00380390860704788ED00E00010024077
:10173000FFFFF6EA90F82410C90706D001684A684E
:10174000836A22F400321A434A6090F82410890711
:1017500006D501684A68C36A22F480321A434A6097
:1017600090F82410490706D501684A68036B22F4F3
:1017700080221A434A6090F82410090706D50168B0
:101780004A68436B22F400421A434A6090F82410DE
:10179000C90606D501688A68836B22F480521A4311
:1017A0008A6090F82410890606D501688A68C36BA0
:1017B00022F400521A438A6090F82410490611D589
:1017C00001684A68036C22F480121A434A60016C73
:1017D000B1F5801F06D101684A68436C22F4C0024B
:1017E0001A434A6090F82410090606D501684A6831
:1017F000806C22F4002202434A607047F8B500264C
:1018000004464667FEF762FE0546206800686FF0F2
:101810007E47000708D52B4600224FF400112046D2
:10182000009700F05DF960B92068006840070AD5AC
:101830002B4600224FF480012046009700F050F91B
:1018400008B10320F8BD202084F8710084F87200EC
:1018500084F870600020F8BD10B5806A0021A0F8FF
:101860005A10A0F85210FFF709FC10BD01680A6871
:1018700022F490720A6001688A6822F001028A608C
:10188000202180F872100021016670472DE9F04197
:101890000446016880682369E66918436369102576
:1018A000002733431843844A0B68844E3340034374
:1018B0000B6020684168E36821F44051194341609E
:1018C0002168A069914201D0236A18438B6823F4F0
:1018D000306303438B607A4B21687A4899420DD17B
:1018E000D0F8880010F0030006D0012839D0022873
:1018F00035D0032838D136E0012535E0724B9942C6
:101900000BD1D0F8880010F00C0026D0042828D085
:10191000082824D00C2827D125E06C4B99420BD104
:10192000D0F8880010F0300017D0102819D02028E7
:1019300015D0302818D116E0914215D1D0F8880082
:1019400010F4406009D0B0F5806F0AD0B0F5006F98
:1019500005D0B0F5406F07D105E0002504E0022571
:1019600002E0042500E00825594B00264FF4004012
:1019700091423DD135B1022D07D0042D07D0082D5D
:1019800010D107E0FFF782F803E0184602E0FFF706
:10199000A1F8A8B3626802EB4201814202D8B0EB21
:1019A000023F01D9012774E0DFF828815DB1022DE3
:1019B0000CD0042D13D0082DF4D15008290540185F
:1019C00046F1000105E0FFF761F80AE050084249DE
:1019D000F5E70023FEF7F6FBA0F5407155E0FFF7B1
:1019E00079F86268010E0302500818187141F0E797
:1019F000E1694FF6EF7881422ED1092DD2D200E075
:101A000047E0DFE805F006091F052205050525006A
:101A1000C8E7FFF73BF801E0FFF74AF841006068CC
:101A200001EB5001B1FBF0F080B2A0F11001414593
:101A3000B8D84FF6F0710140C0F34200014320686E
:101A4000C16026E025496068EAE7FFF743F8E5E76B
:101A50004FF480316068E3E7092DA3D2DFE805F099
:101A600006091E052205050525009BE7FFF70EF870
:101A700001E0FFF71DF80146606801EB500100BF6F
:101A8000B1FBF0F080B2A0F1100141458AD8216885
:101A9000C860266638466666BDE8F081606803EB7C
:101AA0005001EDE7FFF716F8E5E7616800EB51003C
:101AB000B0FBF1F0E6E7000000800040F369FFEFC3
:101AC000003801400010024000440040004800403F
:101AD0000024F400FFFC0F00000024F40048E8019B
:101AE0002DE9F041984617460E460446069D1DE036
:101AF000681C1BD02DB1FEF7E9FCA0EB0800A84242
:101B000014D92068016821F4D071016020688168CF
:101B100021F001018160202084F8710084F87200B6
:101B2000002084F870000320BDE8F0812068C069BF
:101B300036EA000004D00020B842D9D00020F3E7F4
:101B40000120F9E70148FFF79BBA000024000020BC
:101B5000FEE7FEE70FB4054B10B503A9044A02984F
:101B600000F018F810BC5DF814FB0000F11C000830
:101B70001800002002E008C8121F08C1002AFAD18C
:101B800070477047002001E001C1121F002AFBD1FD
:101B9000704700002DE9FF4F89B09B4604460025A1
:101BA00006E025280BD05A460B999047641C6D1C03
:101BB00020780028F5D10DB0284600F095B8002710
:101BC000B8460122474900E0074314F8013F203B93
:101BD00002FA03F00842F7D120782E2819D114F820
:101BE000010F47F004072A280ED06FF02F0220784B
:101BF000A0F1300109290CD808EB880102EB410162
:101C000000EB0108641CF2E70A98641C50F8048B8E
:101C10000A9020780028CED0642808D0692806D001
:101C200075281ED05A460B9990476D1C58E00A99AA
:101C30004FF00A0901C90A91002802DA40422D2119
:101C400002E0390504D52B218DF82010012103E095
:101C5000F90704D02021F7E78A4608AE0DE00021FD
:101C6000FAE70A994FF00A0901C90A91F7E74946CC
:101C7000FEF7F3FA303106F8011D0028F7D1ADEB7D
:101C8000060000F12009780701D44FF00108C8458B
:101C900002DDA8EB090000E000208046002706E0F6
:101CA00008A85A46C05D0B9990476D1C7F1C57458C
:101CB000F6DB04E030205A460B9990476D1CB8F1D2
:101CC0000001A8F10108F5DC05E016F8010B5A4601
:101CD0000B9990476D1CB9F10001A9F10109F4DCE1
:101CE000641C65E70928010030BCBDE8C08F000016
:101CF00013B54FF6FF73012269460248FFF7C6FA93
:101D000000981CBD2400002010B5002821D0114BE4
:101D10000022001F196803E0814203D80A4649687F
:101D20000029F9D152B11368841A9C4204D1006889
:101D300018441060104602E0506000E0186039B1AD
:101D400002680B1A934203D10B681A440260496877
:101D5000416010BD1C000020FEF7C6FBFFF783FCAE
:101D6000FFF7EEFAFFF702FB04A0FFF7F3FE00F027
:101D70006DF800BF00F070F9FCE700002073797384
:101D800074656D20696E69742E2E2E200D0A000078
:101D9000F0B50B30154D20F007010024144A0FE078
:101DA00003688B420BD38B4205D95E1A43184768F0
:101DB000C3E9006700E04368136002C004E0021D4D
:101DC00010680028ECD12046002802D1286808B10C
:101DD0000020F0BD064A07481060074A121A22F098
:101DE0000702C0E9002401202860D7E72000002076
:101DF0001C000020A4000020A002002010B5002438
:101E0000022000F02DF8054902220860002100F0B0
:101E100030F82046BDE81040FFF7BABB10000020A4
:101E2000084A127890420AD272B6074A126832F80B
:101E300010308B4322F8103062B601207047032027
:101E400070470000AC20000810000020034910B5C6
:101E500000204860FFF7D2FF012010BD08000020DD
:101E600001460120FEF7EBB9002801D0FFF74CBF77
:101E70007047FEF7DBB910B504000ED004F108007E
:101E800080B2FFF7EDFF002806D0002102C0FF213D
:101E900020F8044B00F8021C10BD002010BD10B546
:101EA00028B110F8021CFF2903D0042010BD052022
:101EB00010BD0838FFF7D8FF012010BD72B6002210
:101EC00041F8082C026812B9016006E0024652F897
:101ED000080C0028FAD142F8081C62B670470000CE
:101EE00010B5034641B113480078834206D3084633
:101EF000FFF7D5FF032010BD052010BD51F8080CD9
:101F000018B911F8020CFF2803D00846FFF7C7FFE5
:101F1000F2E7094801F8023C012A08D0FFF7CEFF9A
:101F20004FF40041184600F081F8012010BD00F088
:101F300017F8F5E7AC2000080C00002010B572B6C9
:101F4000046851F8083C8C4201D1036001E042F87A
:101F5000083C002041F8080DFF20887162B610BDD2
:101F600072B6026841F8082C016062B67047000042
:101F700030B500252C4672B610494B684FF400412D
:101F80000EE000BF13F8022C824205D11CB14BB108
:101F900000F04CF809E01C4604B91D4653F8083C13
:101FA000002BEFD1FFF73CFF2CB104482A46214615
:101FB000001DFFF7C3FF62B6204630BD08000020B9
:101FC0000022FFF78DBF000070B5144D14490024A6
:101FD000D5F8000030F8142022B9641C0A78E4B265
:101FE0009442F7D309788C4217D272B630F81410A5
:101FF000002220F8142062B60A4E0B48347050F8C4
:10200000242020469047FF21317072B6296831F8AC
:102010001420024321F8142062B670BD1000002085
:10202000AC20000808000020A8200008084A127808
:1020300090420AD272B6074A126832F810300B4347
:1020400022F8103062B6012070470320704700006C
:10205000AC20000810000020FFF7B6FFFCE70000EE
:102060000000000000000000010203040607080948
:10207000A0860100400D0300801A060000350C0008
:1020800040420F0080841E0000093D0000127A00CB
:102090000024F40000366E010048E801006CDC0208
:1020A0000000000001020304D11500080100000037
:1020B000D02000080000002024000000741B00084D
:1020C000F4200008240000207C060000841B000887
:1020D0000000000000093D00FF00000000000000BB
:1020E00000000000000000000000000000000000F0
:0420F00000000000EC
:040000050800018D61
:00000001FF
